{
  "contractName": "NFT",
  "abi": [
    {
      "inputs": [
        {
          "internalType": "string",
          "name": "symbol",
          "type": "string"
        },
        {
          "internalType": "string",
          "name": "name",
          "type": "string"
        }
      ],
      "stateMutability": "nonpayable",
      "type": "constructor"
    },
    {
      "anonymous": false,
      "inputs": [
        {
          "indexed": true,
          "internalType": "address",
          "name": "owner",
          "type": "address"
        },
        {
          "indexed": true,
          "internalType": "address",
          "name": "approved",
          "type": "address"
        },
        {
          "indexed": true,
          "internalType": "uint256",
          "name": "tokenId",
          "type": "uint256"
        }
      ],
      "name": "Approval",
      "type": "event"
    },
    {
      "anonymous": false,
      "inputs": [
        {
          "indexed": true,
          "internalType": "address",
          "name": "owner",
          "type": "address"
        },
        {
          "indexed": true,
          "internalType": "address",
          "name": "operator",
          "type": "address"
        },
        {
          "indexed": false,
          "internalType": "bool",
          "name": "approved",
          "type": "bool"
        }
      ],
      "name": "ApprovalForAll",
      "type": "event"
    },
    {
      "anonymous": false,
      "inputs": [
        {
          "indexed": true,
          "internalType": "address",
          "name": "from",
          "type": "address"
        },
        {
          "indexed": true,
          "internalType": "address",
          "name": "to",
          "type": "address"
        },
        {
          "indexed": true,
          "internalType": "uint256",
          "name": "tokenId",
          "type": "uint256"
        }
      ],
      "name": "Transfer",
      "type": "event"
    },
    {
      "inputs": [
        {
          "internalType": "address",
          "name": "to",
          "type": "address"
        },
        {
          "internalType": "uint256",
          "name": "tokenId",
          "type": "uint256"
        }
      ],
      "name": "approve",
      "outputs": [],
      "stateMutability": "nonpayable",
      "type": "function"
    },
    {
      "inputs": [
        {
          "internalType": "address",
          "name": "owner",
          "type": "address"
        }
      ],
      "name": "balanceOf",
      "outputs": [
        {
          "internalType": "uint256",
          "name": "",
          "type": "uint256"
        }
      ],
      "stateMutability": "view",
      "type": "function"
    },
    {
      "inputs": [],
      "name": "counter",
      "outputs": [
        {
          "internalType": "uint256",
          "name": "",
          "type": "uint256"
        }
      ],
      "stateMutability": "view",
      "type": "function"
    },
    {
      "inputs": [
        {
          "internalType": "string",
          "name": "",
          "type": "string"
        }
      ],
      "name": "games",
      "outputs": [
        {
          "internalType": "string",
          "name": "gameid",
          "type": "string"
        },
        {
          "internalType": "uint256",
          "name": "entry",
          "type": "uint256"
        },
        {
          "internalType": "string",
          "name": "secret",
          "type": "string"
        },
        {
          "internalType": "uint256",
          "name": "tokenid",
          "type": "uint256"
        },
        {
          "internalType": "address",
          "name": "owner",
          "type": "address"
        },
        {
          "internalType": "address",
          "name": "winner",
          "type": "address"
        },
        {
          "internalType": "bool",
          "name": "isover",
          "type": "bool"
        }
      ],
      "stateMutability": "view",
      "type": "function"
    },
    {
      "inputs": [
        {
          "internalType": "uint256",
          "name": "tokenId",
          "type": "uint256"
        }
      ],
      "name": "getApproved",
      "outputs": [
        {
          "internalType": "address",
          "name": "",
          "type": "address"
        }
      ],
      "stateMutability": "view",
      "type": "function"
    },
    {
      "inputs": [
        {
          "internalType": "address",
          "name": "owner",
          "type": "address"
        },
        {
          "internalType": "address",
          "name": "operator",
          "type": "address"
        }
      ],
      "name": "isApprovedForAll",
      "outputs": [
        {
          "internalType": "bool",
          "name": "",
          "type": "bool"
        }
      ],
      "stateMutability": "view",
      "type": "function"
    },
    {
      "inputs": [],
      "name": "name",
      "outputs": [
        {
          "internalType": "string",
          "name": "",
          "type": "string"
        }
      ],
      "stateMutability": "view",
      "type": "function"
    },
    {
      "inputs": [],
      "name": "owner",
      "outputs": [
        {
          "internalType": "address",
          "name": "",
          "type": "address"
        }
      ],
      "stateMutability": "view",
      "type": "function"
    },
    {
      "inputs": [
        {
          "internalType": "uint256",
          "name": "tokenId",
          "type": "uint256"
        }
      ],
      "name": "ownerOf",
      "outputs": [
        {
          "internalType": "address",
          "name": "",
          "type": "address"
        }
      ],
      "stateMutability": "view",
      "type": "function"
    },
    {
      "inputs": [
        {
          "internalType": "address",
          "name": "from",
          "type": "address"
        },
        {
          "internalType": "address",
          "name": "to",
          "type": "address"
        },
        {
          "internalType": "uint256",
          "name": "tokenId",
          "type": "uint256"
        }
      ],
      "name": "safeTransferFrom",
      "outputs": [],
      "stateMutability": "nonpayable",
      "type": "function"
    },
    {
      "inputs": [
        {
          "internalType": "address",
          "name": "from",
          "type": "address"
        },
        {
          "internalType": "address",
          "name": "to",
          "type": "address"
        },
        {
          "internalType": "uint256",
          "name": "tokenId",
          "type": "uint256"
        },
        {
          "internalType": "bytes",
          "name": "_data",
          "type": "bytes"
        }
      ],
      "name": "safeTransferFrom",
      "outputs": [],
      "stateMutability": "nonpayable",
      "type": "function"
    },
    {
      "inputs": [
        {
          "internalType": "address",
          "name": "operator",
          "type": "address"
        },
        {
          "internalType": "bool",
          "name": "approved",
          "type": "bool"
        }
      ],
      "name": "setApprovalForAll",
      "outputs": [],
      "stateMutability": "nonpayable",
      "type": "function"
    },
    {
      "inputs": [
        {
          "internalType": "bytes4",
          "name": "interfaceId",
          "type": "bytes4"
        }
      ],
      "name": "supportsInterface",
      "outputs": [
        {
          "internalType": "bool",
          "name": "",
          "type": "bool"
        }
      ],
      "stateMutability": "view",
      "type": "function"
    },
    {
      "inputs": [],
      "name": "symbol",
      "outputs": [
        {
          "internalType": "string",
          "name": "",
          "type": "string"
        }
      ],
      "stateMutability": "view",
      "type": "function"
    },
    {
      "inputs": [
        {
          "internalType": "uint256",
          "name": "tokenId",
          "type": "uint256"
        }
      ],
      "name": "tokenURI",
      "outputs": [
        {
          "internalType": "string",
          "name": "",
          "type": "string"
        }
      ],
      "stateMutability": "view",
      "type": "function"
    },
    {
      "inputs": [
        {
          "internalType": "address",
          "name": "from",
          "type": "address"
        },
        {
          "internalType": "address",
          "name": "to",
          "type": "address"
        },
        {
          "internalType": "uint256",
          "name": "tokenId",
          "type": "uint256"
        }
      ],
      "name": "transferFrom",
      "outputs": [],
      "stateMutability": "nonpayable",
      "type": "function"
    },
    {
      "inputs": [
        {
          "internalType": "string",
          "name": "secret",
          "type": "string"
        },
        {
          "internalType": "string",
          "name": "gameid",
          "type": "string"
        },
        {
          "internalType": "uint256",
          "name": "entry",
          "type": "uint256"
        }
      ],
      "name": "creategame",
      "outputs": [],
      "stateMutability": "nonpayable",
      "type": "function"
    },
    {
      "inputs": [
        {
          "internalType": "string",
          "name": "gameid",
          "type": "string"
        }
      ],
      "name": "participate",
      "outputs": [],
      "stateMutability": "payable",
      "type": "function"
    },
    {
      "inputs": [
        {
          "internalType": "bytes32",
          "name": "_hashedMessage",
          "type": "bytes32"
        },
        {
          "internalType": "uint8",
          "name": "_v",
          "type": "uint8"
        },
        {
          "internalType": "bytes32",
          "name": "_r",
          "type": "bytes32"
        },
        {
          "internalType": "bytes32",
          "name": "_s",
          "type": "bytes32"
        },
        {
          "internalType": "string",
          "name": "gameid",
          "type": "string"
        },
        {
          "internalType": "address",
          "name": "winner",
          "type": "address"
        }
      ],
      "name": "claimPrize",
      "outputs": [
        {
          "internalType": "bool",
          "name": "",
          "type": "bool"
        }
      ],
      "stateMutability": "nonpayable",
      "type": "function"
    },
    {
      "inputs": [
        {
          "internalType": "bytes",
          "name": "data",
          "type": "bytes"
        }
      ],
      "name": "toString",
      "outputs": [
        {
          "internalType": "string",
          "name": "",
          "type": "string"
        }
      ],
      "stateMutability": "pure",
      "type": "function"
    }
  ],
  "bytecode": "0x608060405260006007553480156200001657600080fd5b50604051620041db380380620041db83398181016040528101906200003c919062000308565b8082816000908051906020019062000056929190620000bb565b5080600190805190602001906200006f929190620000bb565b50505032600960006101000a81548173ffffffffffffffffffffffffffffffffffffffff021916908373ffffffffffffffffffffffffffffffffffffffff1602179055505050620003f2565b828054620000c990620003bc565b90600052602060002090601f016020900481019282620000ed576000855562000139565b82601f106200010857805160ff191683800117855562000139565b8280016001018555821562000139579182015b82811115620001385782518255916020019190600101906200011b565b5b5090506200014891906200014c565b5090565b5b80821115620001675760008160009055506001016200014d565b5090565b6000604051905090565b600080fd5b600080fd5b600080fd5b600080fd5b6000601f19601f8301169050919050565b7f4e487b7100000000000000000000000000000000000000000000000000000000600052604160045260246000fd5b620001d48262000189565b810181811067ffffffffffffffff82111715620001f657620001f56200019a565b5b80604052505050565b60006200020b6200016b565b9050620002198282620001c9565b919050565b600067ffffffffffffffff8211156200023c576200023b6200019a565b5b620002478262000189565b9050602081019050919050565b60005b838110156200027457808201518184015260208101905062000257565b8381111562000284576000848401525b50505050565b6000620002a16200029b846200021e565b620001ff565b905082815260208101848484011115620002c057620002bf62000184565b5b620002cd84828562000254565b509392505050565b600082601f830112620002ed57620002ec6200017f565b5b8151620002ff8482602086016200028a565b91505092915050565b6000806040838503121562000322576200032162000175565b5b600083015167ffffffffffffffff8111156200034357620003426200017a565b5b6200035185828601620002d5565b925050602083015167ffffffffffffffff8111156200037557620003746200017a565b5b6200038385828601620002d5565b9150509250929050565b7f4e487b7100000000000000000000000000000000000000000000000000000000600052602260045260246000fd5b60006002820490506001821680620003d557607f821691505b60208210811415620003ec57620003eb6200038d565b5b50919050565b613dd980620004026000396000f3fe60806040526004361061011f5760003560e01c80636d20931a116100a0578063a22cb46511610064578063a22cb46514610404578063b88d4fde1461042d578063c87b56dd14610456578063e985e9c514610493578063f6427085146104d05761011f565b80636d20931a146102f157806370a082311461033457806371aad10d146103715780638da5cb5b146103ae57806395d89b41146103d95761011f565b806323b872dd116100e757806323b872dd1461020e578063406aed0d1461023757806342842e0e1461026057806361bc221a146102895780636352211e146102b45761011f565b806301ffc9a71461012457806306fdde0314610161578063081812fc1461018c578063095ea7b3146101c95780631d27769f146101f2575b600080fd5b34801561013057600080fd5b5061014b60048036038101906101469190612579565b61050d565b60405161015891906125c1565b60405180910390f35b34801561016d57600080fd5b506101766105ef565b6040516101839190612675565b60405180910390f35b34801561019857600080fd5b506101b360048036038101906101ae91906126cd565b610681565b6040516101c0919061273b565b60405180910390f35b3480156101d557600080fd5b506101f060048036038101906101eb9190612782565b610706565b005b61020c600480360381019061020791906128f7565b61081e565b005b34801561021a57600080fd5b5061023560048036038101906102309190612940565b610a3b565b005b34801561024357600080fd5b5061025e60048036038101906102599190612993565b610a9b565b005b34801561026c57600080fd5b5061028760048036038101906102829190612940565b610b64565b005b34801561029557600080fd5b5061029e610b84565b6040516102ab9190612a2d565b60405180910390f35b3480156102c057600080fd5b506102db60048036038101906102d691906126cd565b610b8a565b6040516102e8919061273b565b60405180910390f35b3480156102fd57600080fd5b50610318600480360381019061031391906128f7565b610c3c565b60405161032b9796959493929190612a48565b60405180910390f35b34801561034057600080fd5b5061035b60048036038101906103569190612ac5565b610df1565b6040516103689190612a2d565b60405180910390f35b34801561037d57600080fd5b5061039860048036038101906103939190612b93565b610ea9565b6040516103a59190612675565b60405180910390f35b3480156103ba57600080fd5b506103c36111a3565b6040516103d0919061273b565b60405180910390f35b3480156103e557600080fd5b506103ee6111c9565b6040516103fb9190612675565b60405180910390f35b34801561041057600080fd5b5061042b60048036038101906104269190612c08565b61125b565b005b34801561043957600080fd5b50610454600480360381019061044f9190612c48565b6113dc565b005b34801561046257600080fd5b5061047d600480360381019061047891906126cd565b61143e565b60405161048a9190612675565b60405180910390f35b34801561049f57600080fd5b506104ba60048036038101906104b59190612ccb565b611590565b6040516104c791906125c1565b60405180910390f35b3480156104dc57600080fd5b506104f760048036038101906104f29190612d7a565b611624565b60405161050491906125c1565b60405180910390f35b60007f80ac58cd000000000000000000000000000000000000000000000000000000007bffffffffffffffffffffffffffffffffffffffffffffffffffffffff1916827bffffffffffffffffffffffffffffffffffffffffffffffffffffffff191614806105d857507f5b5e139f000000000000000000000000000000000000000000000000000000007bffffffffffffffffffffffffffffffffffffffffffffffffffffffff1916827bffffffffffffffffffffffffffffffffffffffffffffffffffffffff1916145b806105e857506105e78261193c565b5b9050919050565b6060600080546105fe90612e52565b80601f016020809104026020016040519081016040528092919081815260200182805461062a90612e52565b80156106775780601f1061064c57610100808354040283529160200191610677565b820191906000526020600020905b81548152906001019060200180831161065a57829003601f168201915b5050505050905090565b600061068c826119a6565b6106cb576040517f08c379a00000000000000000000000000000000000000000000000000000000081526004016106c290612ef6565b60405180910390fd5b6004600083815260200190815260200160002060009054906101000a900473ffffffffffffffffffffffffffffffffffffffff169050919050565b600061071182610b8a565b90508073ffffffffffffffffffffffffffffffffffffffff168373ffffffffffffffffffffffffffffffffffffffff161415610782576040517f08c379a000000000000000000000000000000000000000000000000000000000815260040161077990612f88565b60405180910390fd5b8073ffffffffffffffffffffffffffffffffffffffff166107a1611a12565b73ffffffffffffffffffffffffffffffffffffffff1614806107d057506107cf816107ca611a12565b611590565b5b61080f576040517f08c379a00000000000000000000000000000000000000000000000000000000081526004016108069061301a565b60405180910390fd5b6108198383611a1a565b505050565b3460088260405161082f9190613076565b9081526020016040518091039020600101541115610882576040517f08c379a0000000000000000000000000000000000000000000000000000000008152600401610879906130d9565b60405180910390fd5b600015156008826040516108969190613076565b908152602001604051809103902060050160149054906101000a900460ff161515146108c157600080fd5b60006008826040516108d39190613076565b90815260200160405180910390209050600015158160070160003273ffffffffffffffffffffffffffffffffffffffff1673ffffffffffffffffffffffffffffffffffffffff16815260200190815260200160002060009054906101000a900460ff16151514610978576040517f08c379a000000000000000000000000000000000000000000000000000000000815260040161096f90613145565b60405180910390fd5b80600601329080600181540180825580915050600190039060005260206000200160009091909190916101000a81548173ffffffffffffffffffffffffffffffffffffffff021916908373ffffffffffffffffffffffffffffffffffffffff16021790555060018160070160003273ffffffffffffffffffffffffffffffffffffffff1673ffffffffffffffffffffffffffffffffffffffff16815260200190815260200160002060006101000a81548160ff0219169083151502179055505050565b610a4c610a46611a12565b82611ad3565b610a8b576040517f08c379a0000000000000000000000000000000000000000000000000000000008152600401610a82906131d7565b60405180910390fd5b610a96838383611bb1565b505050565b6000600883604051610aad9190613076565b9081526020016040518091039020905082816000019080519060200190610ad592919061246a565b5083816002019080519060200190610aee92919061246a565b50818160010181905550328160040160006101000a81548173ffffffffffffffffffffffffffffffffffffffff021916908373ffffffffffffffffffffffffffffffffffffffff160217905550600754816003018190555060076000815480929190610b5990613226565b919050555050505050565b610b7f838383604051806020016040528060008152506113dc565b505050565b60075481565b6000806002600084815260200190815260200160002060009054906101000a900473ffffffffffffffffffffffffffffffffffffffff169050600073ffffffffffffffffffffffffffffffffffffffff168173ffffffffffffffffffffffffffffffffffffffff161415610c33576040517f08c379a0000000000000000000000000000000000000000000000000000000008152600401610c2a906132e1565b60405180910390fd5b80915050919050565b600881805160208101820180518482526020830160208501208183528095505050505050600091509050806000018054610c7590612e52565b80601f0160208091040260200160405190810160405280929190818152602001828054610ca190612e52565b8015610cee5780601f10610cc357610100808354040283529160200191610cee565b820191906000526020600020905b815481529060010190602001808311610cd157829003601f168201915b505050505090806001015490806002018054610d0990612e52565b80601f0160208091040260200160405190810160405280929190818152602001828054610d3590612e52565b8015610d825780601f10610d5757610100808354040283529160200191610d82565b820191906000526020600020905b815481529060010190602001808311610d6557829003601f168201915b5050505050908060030154908060040160009054906101000a900473ffffffffffffffffffffffffffffffffffffffff16908060050160009054906101000a900473ffffffffffffffffffffffffffffffffffffffff16908060050160149054906101000a900460ff16905087565b60008073ffffffffffffffffffffffffffffffffffffffff168273ffffffffffffffffffffffffffffffffffffffff161415610e62576040517f08c379a0000000000000000000000000000000000000000000000000000000008152600401610e5990613373565b60405180910390fd5b600360008373ffffffffffffffffffffffffffffffffffffffff1673ffffffffffffffffffffffffffffffffffffffff168152602001908152602001600020549050919050565b606060006040518060400160405280601081526020017f30313233343536373839616263646566000000000000000000000000000000008152509050600060028451610ef59190613393565b6002610f0191906133ed565b67ffffffffffffffff811115610f1a57610f196127cc565b5b6040519080825280601f01601f191660200182016040528015610f4c5781602001600182028036833780820191505090505b5090507f300000000000000000000000000000000000000000000000000000000000000081600081518110610f8457610f83613443565b5b60200101907effffffffffffffffffffffffffffffffffffffffffffffffffffffffffffff1916908160001a9053507f780000000000000000000000000000000000000000000000000000000000000081600181518110610fe857610fe7613443565b5b60200101907effffffffffffffffffffffffffffffffffffffffffffffffffffffffffffff1916908160001a90535060005b84518110156111985782600486838151811061103957611038613443565b5b602001015160f81c60f81b7effffffffffffffffffffffffffffffffffffffffffffffffffffffffffffff1916901c60f81c60ff168151811061107f5761107e613443565b5b602001015160f81c60f81b826002836110989190613393565b60026110a491906133ed565b815181106110b5576110b4613443565b5b60200101907effffffffffffffffffffffffffffffffffffffffffffffffffffffffffffff1916908160001a90535082600f60f81b8683815181106110fd576110fc613443565b5b602001015160f81c60f81b1660f81c60ff16815181106111205761111f613443565b5b602001015160f81c60f81b826002836111399190613393565b600361114591906133ed565b8151811061115657611155613443565b5b60200101907effffffffffffffffffffffffffffffffffffffffffffffffffffffffffffff1916908160001a905350808061119090613226565b91505061101a565b508092505050919050565b600960009054906101000a900473ffffffffffffffffffffffffffffffffffffffff1681565b6060600180546111d890612e52565b80601f016020809104026020016040519081016040528092919081815260200182805461120490612e52565b80156112515780601f1061122657610100808354040283529160200191611251565b820191906000526020600020905b81548152906001019060200180831161123457829003601f168201915b5050505050905090565b611263611a12565b73ffffffffffffffffffffffffffffffffffffffff168273ffffffffffffffffffffffffffffffffffffffff1614156112d1576040517f08c379a00000000000000000000000000000000000000000000000000000000081526004016112c8906134be565b60405180910390fd5b80600560006112de611a12565b73ffffffffffffffffffffffffffffffffffffffff1673ffffffffffffffffffffffffffffffffffffffff16815260200190815260200160002060008473ffffffffffffffffffffffffffffffffffffffff1673ffffffffffffffffffffffffffffffffffffffff16815260200190815260200160002060006101000a81548160ff0219169083151502179055508173ffffffffffffffffffffffffffffffffffffffff1661138b611a12565b73ffffffffffffffffffffffffffffffffffffffff167f17307eab39ab6107e8899845ad3d59bd9653f200f220920489ca2b5937696c31836040516113d091906125c1565b60405180910390a35050565b6113ed6113e7611a12565b83611ad3565b61142c576040517f08c379a0000000000000000000000000000000000000000000000000000000008152600401611423906131d7565b60405180910390fd5b61143884848484611e0d565b50505050565b6060611449826119a6565b611488576040517f08c379a000000000000000000000000000000000000000000000000000000000815260040161147f90613550565b60405180910390fd5b60006006600084815260200190815260200160002080546114a890612e52565b80601f01602080910402602001604051908101604052809291908181526020018280546114d490612e52565b80156115215780601f106114f657610100808354040283529160200191611521565b820191906000526020600020905b81548152906001019060200180831161150457829003601f168201915b505050505090506000611532611e69565b905060008151141561154857819250505061158b565b60008251111561157d578082604051602001611565929190613570565b6040516020818303038152906040529250505061158b565b61158684611e80565b925050505b919050565b6000600560008473ffffffffffffffffffffffffffffffffffffffff1673ffffffffffffffffffffffffffffffffffffffff16815260200190815260200160002060008373ffffffffffffffffffffffffffffffffffffffff1673ffffffffffffffffffffffffffffffffffffffff16815260200190815260200160002060009054906101000a900460ff16905092915050565b6000806040518060400160405280601c81526020017f19457468657265756d205369676e6564204d6573736167653a0a3332000000008152509050836116888460405160200161167491906135dc565b604051602081830303815290604052610ea9565b604051602001611699929190613570565b6040516020818303038152906040528051906020012088146116f0576040517f08c379a00000000000000000000000000000000000000000000000000000000081526004016116e790613643565b60405180910390fd5b600081896040516020016117059291906136cb565b60405160208183030381529060405280519060200120905060006001828a8a8a604051600081526020016040526040516117429493929190613711565b6020604051602081039080840390855afa158015611764573d6000803e3d6000fd5b505050602060405103519050600960009054906101000a900473ffffffffffffffffffffffffffffffffffffffff1673ffffffffffffffffffffffffffffffffffffffff168173ffffffffffffffffffffffffffffffffffffffff1614611800576040517f08c379a00000000000000000000000000000000000000000000000000000000081526004016117f7906137a2565b60405180910390fd5b60006008876040516118129190613076565b9081526020016040518091039020905060018160050160146101000a81548160ff021916908315150217905550858160050160006101000a81548173ffffffffffffffffffffffffffffffffffffffff021916908373ffffffffffffffffffffffffffffffffffffffff160217905550611890868260030154611f27565b61192a81600301548260020180546118a790612e52565b80601f01602080910402602001604051908101604052809291908181526020018280546118d390612e52565b80156119205780601f106118f557610100808354040283529160200191611920565b820191906000526020600020905b81548152906001019060200180831161190357829003601f168201915b50505050506120f5565b60019450505050509695505050505050565b60007f01ffc9a7000000000000000000000000000000000000000000000000000000007bffffffffffffffffffffffffffffffffffffffffffffffffffffffff1916827bffffffffffffffffffffffffffffffffffffffffffffffffffffffff1916149050919050565b60008073ffffffffffffffffffffffffffffffffffffffff166002600084815260200190815260200160002060009054906101000a900473ffffffffffffffffffffffffffffffffffffffff1673ffffffffffffffffffffffffffffffffffffffff1614159050919050565b600033905090565b816004600083815260200190815260200160002060006101000a81548173ffffffffffffffffffffffffffffffffffffffff021916908373ffffffffffffffffffffffffffffffffffffffff160217905550808273ffffffffffffffffffffffffffffffffffffffff16611a8d83610b8a565b73ffffffffffffffffffffffffffffffffffffffff167f8c5be1e5ebec7d5bd14f71427d1e84f3dd0314c0f7b2291e5b200ac8c7c3b92560405160405180910390a45050565b6000611ade826119a6565b611b1d576040517f08c379a0000000000000000000000000000000000000000000000000000000008152600401611b1490613834565b60405180910390fd5b6000611b2883610b8a565b90508073ffffffffffffffffffffffffffffffffffffffff168473ffffffffffffffffffffffffffffffffffffffff161480611b9757508373ffffffffffffffffffffffffffffffffffffffff16611b7f84610681565b73ffffffffffffffffffffffffffffffffffffffff16145b80611ba85750611ba78185611590565b5b91505092915050565b8273ffffffffffffffffffffffffffffffffffffffff16611bd182610b8a565b73ffffffffffffffffffffffffffffffffffffffff1614611c27576040517f08c379a0000000000000000000000000000000000000000000000000000000008152600401611c1e906138c6565b60405180910390fd5b600073ffffffffffffffffffffffffffffffffffffffff168273ffffffffffffffffffffffffffffffffffffffff161415611c97576040517f08c379a0000000000000000000000000000000000000000000000000000000008152600401611c8e90613958565b60405180910390fd5b611ca2838383612169565b611cad600082611a1a565b6001600360008573ffffffffffffffffffffffffffffffffffffffff1673ffffffffffffffffffffffffffffffffffffffff1681526020019081526020016000206000828254611cfd9190613978565b925050819055506001600360008473ffffffffffffffffffffffffffffffffffffffff1673ffffffffffffffffffffffffffffffffffffffff1681526020019081526020016000206000828254611d5491906133ed565b92505081905550816002600083815260200190815260200160002060006101000a81548173ffffffffffffffffffffffffffffffffffffffff021916908373ffffffffffffffffffffffffffffffffffffffff160217905550808273ffffffffffffffffffffffffffffffffffffffff168473ffffffffffffffffffffffffffffffffffffffff167fddf252ad1be2c89b69c2b068fc378daa952ba7f163c4a11628f55a4df523b3ef60405160405180910390a4505050565b611e18848484611bb1565b611e248484848461216e565b611e63576040517f08c379a0000000000000000000000000000000000000000000000000000000008152600401611e5a90613a1e565b60405180910390fd5b50505050565b606060405180602001604052806000815250905090565b6060611e8b826119a6565b611eca576040517f08c379a0000000000000000000000000000000000000000000000000000000008152600401611ec190613ab0565b60405180910390fd5b6000611ed4611e69565b90506000815111611ef45760405180602001604052806000815250611f1f565b80611efe846122f6565b604051602001611f0f929190613570565b6040516020818303038152906040525b915050919050565b600073ffffffffffffffffffffffffffffffffffffffff168273ffffffffffffffffffffffffffffffffffffffff161415611f97576040517f08c379a0000000000000000000000000000000000000000000000000000000008152600401611f8e90613b1c565b60405180910390fd5b611fa0816119a6565b15611fe0576040517f08c379a0000000000000000000000000000000000000000000000000000000008152600401611fd790613b88565b60405180910390fd5b611fec60008383612169565b6001600360008473ffffffffffffffffffffffffffffffffffffffff1673ffffffffffffffffffffffffffffffffffffffff168152602001908152602001600020600082825461203c91906133ed565b92505081905550816002600083815260200190815260200160002060006101000a81548173ffffffffffffffffffffffffffffffffffffffff021916908373ffffffffffffffffffffffffffffffffffffffff160217905550808273ffffffffffffffffffffffffffffffffffffffff16600073ffffffffffffffffffffffffffffffffffffffff167fddf252ad1be2c89b69c2b068fc378daa952ba7f163c4a11628f55a4df523b3ef60405160405180910390a45050565b6120fe826119a6565b61213d576040517f08c379a000000000000000000000000000000000000000000000000000000000815260040161213490613c1a565b60405180910390fd5b8060066000848152602001908152602001600020908051906020019061216492919061246a565b505050565b505050565b600061218f8473ffffffffffffffffffffffffffffffffffffffff16612457565b156122e9578373ffffffffffffffffffffffffffffffffffffffff1663150b7a026121b8611a12565b8786866040518563ffffffff1660e01b81526004016121da9493929190613c84565b6020604051808303816000875af192505050801561221657506040513d601f19601f820116820180604052508101906122139190613ce5565b60015b612299573d8060008114612246576040519150601f19603f3d011682016040523d82523d6000602084013e61224b565b606091505b50600081511415612291576040517f08c379a000000000000000000000000000000000000000000000000000000000815260040161228890613a1e565b60405180910390fd5b805181602001fd5b63150b7a0260e01b7bffffffffffffffffffffffffffffffffffffffffffffffffffffffff1916817bffffffffffffffffffffffffffffffffffffffffffffffffffffffff1916149150506122ee565b600190505b949350505050565b6060600082141561233e576040518060400160405280600181526020017f30000000000000000000000000000000000000000000000000000000000000008152509050612452565b600082905060005b6000821461237057808061235990613226565b915050600a826123699190613d41565b9150612346565b60008167ffffffffffffffff81111561238c5761238b6127cc565b5b6040519080825280601f01601f1916602001820160405280156123be5781602001600182028036833780820191505090505b5090505b6000851461244b576001826123d79190613978565b9150600a856123e69190613d72565b60306123f291906133ed565b60f81b81838151811061240857612407613443565b5b60200101907effffffffffffffffffffffffffffffffffffffffffffffffffffffffffffff1916908160001a905350600a856124449190613d41565b94506123c2565b8093505050505b919050565b600080823b905060008111915050919050565b82805461247690612e52565b90600052602060002090601f01602090048101928261249857600085556124df565b82601f106124b157805160ff19168380011785556124df565b828001600101855582156124df579182015b828111156124de5782518255916020019190600101906124c3565b5b5090506124ec91906124f0565b5090565b5b808211156125095760008160009055506001016124f1565b5090565b6000604051905090565b600080fd5b600080fd5b60007fffffffff0000000000000000000000000000000000000000000000000000000082169050919050565b61255681612521565b811461256157600080fd5b50565b6000813590506125738161254d565b92915050565b60006020828403121561258f5761258e612517565b5b600061259d84828501612564565b91505092915050565b60008115159050919050565b6125bb816125a6565b82525050565b60006020820190506125d660008301846125b2565b92915050565b600081519050919050565b600082825260208201905092915050565b60005b838110156126165780820151818401526020810190506125fb565b83811115612625576000848401525b50505050565b6000601f19601f8301169050919050565b6000612647826125dc565b61265181856125e7565b93506126618185602086016125f8565b61266a8161262b565b840191505092915050565b6000602082019050818103600083015261268f818461263c565b905092915050565b6000819050919050565b6126aa81612697565b81146126b557600080fd5b50565b6000813590506126c7816126a1565b92915050565b6000602082840312156126e3576126e2612517565b5b60006126f1848285016126b8565b91505092915050565b600073ffffffffffffffffffffffffffffffffffffffff82169050919050565b6000612725826126fa565b9050919050565b6127358161271a565b82525050565b6000602082019050612750600083018461272c565b92915050565b61275f8161271a565b811461276a57600080fd5b50565b60008135905061277c81612756565b92915050565b6000806040838503121561279957612798612517565b5b60006127a78582860161276d565b92505060206127b8858286016126b8565b9150509250929050565b600080fd5b600080fd5b7f4e487b7100000000000000000000000000000000000000000000000000000000600052604160045260246000fd5b6128048261262b565b810181811067ffffffffffffffff82111715612823576128226127cc565b5b80604052505050565b600061283661250d565b905061284282826127fb565b919050565b600067ffffffffffffffff821115612862576128616127cc565b5b61286b8261262b565b9050602081019050919050565b82818337600083830152505050565b600061289a61289584612847565b61282c565b9050828152602081018484840111156128b6576128b56127c7565b5b6128c1848285612878565b509392505050565b600082601f8301126128de576128dd6127c2565b5b81356128ee848260208601612887565b91505092915050565b60006020828403121561290d5761290c612517565b5b600082013567ffffffffffffffff81111561292b5761292a61251c565b5b612937848285016128c9565b91505092915050565b60008060006060848603121561295957612958612517565b5b60006129678682870161276d565b93505060206129788682870161276d565b9250506040612989868287016126b8565b9150509250925092565b6000806000606084860312156129ac576129ab612517565b5b600084013567ffffffffffffffff8111156129ca576129c961251c565b5b6129d6868287016128c9565b935050602084013567ffffffffffffffff8111156129f7576129f661251c565b5b612a03868287016128c9565b9250506040612a14868287016126b8565b9150509250925092565b612a2781612697565b82525050565b6000602082019050612a426000830184612a1e565b92915050565b600060e0820190508181036000830152612a62818a61263c565b9050612a716020830189612a1e565b8181036040830152612a83818861263c565b9050612a926060830187612a1e565b612a9f608083018661272c565b612aac60a083018561272c565b612ab960c08301846125b2565b98975050505050505050565b600060208284031215612adb57612ada612517565b5b6000612ae98482850161276d565b91505092915050565b600067ffffffffffffffff821115612b0d57612b0c6127cc565b5b612b168261262b565b9050602081019050919050565b6000612b36612b3184612af2565b61282c565b905082815260208101848484011115612b5257612b516127c7565b5b612b5d848285612878565b509392505050565b600082601f830112612b7a57612b796127c2565b5b8135612b8a848260208601612b23565b91505092915050565b600060208284031215612ba957612ba8612517565b5b600082013567ffffffffffffffff811115612bc757612bc661251c565b5b612bd384828501612b65565b91505092915050565b612be5816125a6565b8114612bf057600080fd5b50565b600081359050612c0281612bdc565b92915050565b60008060408385031215612c1f57612c1e612517565b5b6000612c2d8582860161276d565b9250506020612c3e85828601612bf3565b9150509250929050565b60008060008060808587031215612c6257612c61612517565b5b6000612c708782880161276d565b9450506020612c818782880161276d565b9350506040612c92878288016126b8565b925050606085013567ffffffffffffffff811115612cb357612cb261251c565b5b612cbf87828801612b65565b91505092959194509250565b60008060408385031215612ce257612ce1612517565b5b6000612cf08582860161276d565b9250506020612d018582860161276d565b9150509250929050565b6000819050919050565b612d1e81612d0b565b8114612d2957600080fd5b50565b600081359050612d3b81612d15565b92915050565b600060ff82169050919050565b612d5781612d41565b8114612d6257600080fd5b50565b600081359050612d7481612d4e565b92915050565b60008060008060008060c08789031215612d9757612d96612517565b5b6000612da589828a01612d2c565b9650506020612db689828a01612d65565b9550506040612dc789828a01612d2c565b9450506060612dd889828a01612d2c565b935050608087013567ffffffffffffffff811115612df957612df861251c565b5b612e0589828a016128c9565b92505060a0612e1689828a0161276d565b9150509295509295509295565b7f4e487b7100000000000000000000000000000000000000000000000000000000600052602260045260246000fd5b60006002820490506001821680612e6a57607f821691505b60208210811415612e7e57612e7d612e23565b5b50919050565b7f4552433732313a20617070726f76656420717565727920666f72206e6f6e657860008201527f697374656e7420746f6b656e0000000000000000000000000000000000000000602082015250565b6000612ee0602c836125e7565b9150612eeb82612e84565b604082019050919050565b60006020820190508181036000830152612f0f81612ed3565b9050919050565b7f4552433732313a20617070726f76616c20746f2063757272656e74206f776e6560008201527f7200000000000000000000000000000000000000000000000000000000000000602082015250565b6000612f726021836125e7565b9150612f7d82612f16565b604082019050919050565b60006020820190508181036000830152612fa181612f65565b9050919050565b7f4552433732313a20617070726f76652063616c6c6572206973206e6f74206f7760008201527f6e6572206e6f7220617070726f76656420666f7220616c6c0000000000000000602082015250565b60006130046038836125e7565b915061300f82612fa8565b604082019050919050565b6000602082019050818103600083015261303381612ff7565b9050919050565b600081905092915050565b6000613050826125dc565b61305a818561303a565b935061306a8185602086016125f8565b80840191505092915050565b60006130828284613045565b915081905092915050565b7f6e6f7420656e6f75676820666f7220656e747279000000000000000000000000600082015250565b60006130c36014836125e7565b91506130ce8261308d565b602082019050919050565b600060208201905081810360008301526130f2816130b6565b9050919050565b7f616c726561647920706172746963697061746564000000000000000000000000600082015250565b600061312f6014836125e7565b915061313a826130f9565b602082019050919050565b6000602082019050818103600083015261315e81613122565b9050919050565b7f4552433732313a207472616e736665722063616c6c6572206973206e6f74206f60008201527f776e6572206e6f7220617070726f766564000000000000000000000000000000602082015250565b60006131c16031836125e7565b91506131cc82613165565b604082019050919050565b600060208201905081810360008301526131f0816131b4565b9050919050565b7f4e487b7100000000000000000000000000000000000000000000000000000000600052601160045260246000fd5b600061323182612697565b91507fffffffffffffffffffffffffffffffffffffffffffffffffffffffffffffffff821415613264576132636131f7565b5b600182019050919050565b7f4552433732313a206f776e657220717565727920666f72206e6f6e657869737460008201527f656e7420746f6b656e0000000000000000000000000000000000000000000000602082015250565b60006132cb6029836125e7565b91506132d68261326f565b604082019050919050565b600060208201905081810360008301526132fa816132be565b9050919050565b7f4552433732313a2062616c616e636520717565727920666f7220746865207a6560008201527f726f206164647265737300000000000000000000000000000000000000000000602082015250565b600061335d602a836125e7565b915061336882613301565b604082019050919050565b6000602082019050818103600083015261338c81613350565b9050919050565b600061339e82612697565b91506133a983612697565b9250817fffffffffffffffffffffffffffffffffffffffffffffffffffffffffffffffff04831182151516156133e2576133e16131f7565b5b828202905092915050565b60006133f882612697565b915061340383612697565b9250827fffffffffffffffffffffffffffffffffffffffffffffffffffffffffffffffff03821115613438576134376131f7565b5b828201905092915050565b7f4e487b7100000000000000000000000000000000000000000000000000000000600052603260045260246000fd5b7f4552433732313a20617070726f766520746f2063616c6c657200000000000000600082015250565b60006134a86019836125e7565b91506134b382613472565b602082019050919050565b600060208201905081810360008301526134d78161349b565b9050919050565b7f45524337323155524953746f726167653a2055524920717565727920666f722060008201527f6e6f6e6578697374656e7420746f6b656e000000000000000000000000000000602082015250565b600061353a6031836125e7565b9150613545826134de565b604082019050919050565b600060208201905081810360008301526135698161352d565b9050919050565b600061357c8285613045565b91506135888284613045565b91508190509392505050565b60008160601b9050919050565b60006135ac82613594565b9050919050565b60006135be826135a1565b9050919050565b6135d66135d18261271a565b6135b3565b82525050565b60006135e882846135c5565b60148201915081905092915050565b7f6e6f7420776f726b696e67000000000000000000000000000000000000000000600082015250565b600061362d600b836125e7565b9150613638826135f7565b602082019050919050565b6000602082019050818103600083015261365c81613620565b9050919050565b600081519050919050565b600081905092915050565b600061368482613663565b61368e818561366e565b935061369e8185602086016125f8565b80840191505092915050565b6000819050919050565b6136c56136c082612d0b565b6136aa565b82525050565b60006136d78285613679565b91506136e382846136b4565b6020820191508190509392505050565b6136fc81612d0b565b82525050565b61370b81612d41565b82525050565b600060808201905061372660008301876136f3565b6137336020830186613702565b61374060408301856136f3565b61374d60608301846136f3565b95945050505050565b7f6e6f74207468652073616d652062697463680000000000000000000000000000600082015250565b600061378c6012836125e7565b915061379782613756565b602082019050919050565b600060208201905081810360008301526137bb8161377f565b9050919050565b7f4552433732313a206f70657261746f7220717565727920666f72206e6f6e657860008201527f697374656e7420746f6b656e0000000000000000000000000000000000000000602082015250565b600061381e602c836125e7565b9150613829826137c2565b604082019050919050565b6000602082019050818103600083015261384d81613811565b9050919050565b7f4552433732313a207472616e73666572206f6620746f6b656e2074686174206960008201527f73206e6f74206f776e0000000000000000000000000000000000000000000000602082015250565b60006138b06029836125e7565b91506138bb82613854565b604082019050919050565b600060208201905081810360008301526138df816138a3565b9050919050565b7f4552433732313a207472616e7366657220746f20746865207a65726f2061646460008201527f7265737300000000000000000000000000000000000000000000000000000000602082015250565b60006139426024836125e7565b915061394d826138e6565b604082019050919050565b6000602082019050818103600083015261397181613935565b9050919050565b600061398382612697565b915061398e83612697565b9250828210156139a1576139a06131f7565b5b828203905092915050565b7f4552433732313a207472616e7366657220746f206e6f6e20455243373231526560008201527f63656976657220696d706c656d656e7465720000000000000000000000000000602082015250565b6000613a086032836125e7565b9150613a13826139ac565b604082019050919050565b60006020820190508181036000830152613a37816139fb565b9050919050565b7f4552433732314d657461646174613a2055524920717565727920666f72206e6f60008201527f6e6578697374656e7420746f6b656e0000000000000000000000000000000000602082015250565b6000613a9a602f836125e7565b9150613aa582613a3e565b604082019050919050565b60006020820190508181036000830152613ac981613a8d565b9050919050565b7f4552433732313a206d696e7420746f20746865207a65726f2061646472657373600082015250565b6000613b066020836125e7565b9150613b1182613ad0565b602082019050919050565b60006020820190508181036000830152613b3581613af9565b9050919050565b7f4552433732313a20746f6b656e20616c7265616479206d696e74656400000000600082015250565b6000613b72601c836125e7565b9150613b7d82613b3c565b602082019050919050565b60006020820190508181036000830152613ba181613b65565b9050919050565b7f45524337323155524953746f726167653a2055524920736574206f66206e6f6e60008201527f6578697374656e7420746f6b656e000000000000000000000000000000000000602082015250565b6000613c04602e836125e7565b9150613c0f82613ba8565b604082019050919050565b60006020820190508181036000830152613c3381613bf7565b9050919050565b600082825260208201905092915050565b6000613c5682613663565b613c608185613c3a565b9350613c708185602086016125f8565b613c798161262b565b840191505092915050565b6000608082019050613c99600083018761272c565b613ca6602083018661272c565b613cb36040830185612a1e565b8181036060830152613cc58184613c4b565b905095945050505050565b600081519050613cdf8161254d565b92915050565b600060208284031215613cfb57613cfa612517565b5b6000613d0984828501613cd0565b91505092915050565b7f4e487b7100000000000000000000000000000000000000000000000000000000600052601260045260246000fd5b6000613d4c82612697565b9150613d5783612697565b925082613d6757613d66613d12565b5b828204905092915050565b6000613d7d82612697565b9150613d8883612697565b925082613d9857613d97613d12565b5b82820690509291505056fea26469706673582212202b6e73c90f97974dfe42e472a89ee2b3cb7cfe2def112cb145730297ea056f0764736f6c634300080c0033",
  "immutableReferences": {},
  "source": "import \"openzeppelin-solidity/contracts/token/ERC721/ERC721.sol\";\nimport \"openzeppelin-solidity/contracts/token/ERC721/extensions/ERC721URIStorage.sol\";\n\n\ncontract NFT is ERC721URIStorage {\n\n    uint256 public counter = 0;\n    struct  gamedetail {\n        string gameid;\n        uint256 entry;\n        string secret;\n        uint256 tokenid;\n        address owner;\n        address winner;\n        bool isover;\n        address[] participants;\n        mapping(address=>bool) part; \n    }\n\n    \n    mapping(string => gamedetail) public games;\n address public owner;\n constructor(\n        string memory symbol,\n        string memory name) public ERC721(name, symbol){\n        owner = tx.origin;\n    }\n\n    function creategame(string memory secret,string memory gameid,uint256 entry) public {\n        \n        gamedetail storage game = games[gameid];\n        game.gameid = gameid;\n        game.secret = secret;\n        game.entry = entry;\n        game.owner = tx.origin;\n        game.tokenid = counter;\n        counter++;\n    }\n\n    function participate(string memory gameid) public payable{\n        require(games[gameid].entry <= msg.value,\"not enough for entry\");\n        require(games[gameid].isover == false);\n        gamedetail storage game = games[gameid];\n        require(game.part[tx.origin] == false,\"already participated\");\n        game.participants.push(tx.origin);\n        game.part[tx.origin] = true;\n    }\n\n\n\n    function claimPrize(bytes32 _hashedMessage, uint8 _v, bytes32 _r, bytes32 _s,string memory gameid,address winner) public returns (bool) {\n        \n        \n        bytes memory prefix = \"\\x19Ethereum Signed Message:\\n32\";\n        require(_hashedMessage == keccak256(abi.encodePacked(gameid,toString(abi.encodePacked(winner)))),\"not working\");\n        bytes32 prefixedHashMessage = keccak256(abi.encodePacked(prefix, _hashedMessage));\n        address signer = ecrecover(prefixedHashMessage, _v, _r, _s);\n        require(signer == owner,\"not the same bitch\");\n      \n        gamedetail storage game = games[gameid];\n        game.isover = true;\n        game.winner = winner;\n        _mint(winner,game.tokenid);\n        _setTokenURI(game.tokenid,game.secret);\n        return true;\n    }\n    function toString(bytes memory data) public pure returns(string memory) {\n    bytes memory alphabet = \"0123456789abcdef\";\n\n    bytes memory str = new bytes(2 + data.length * 2);\n    str[0] = \"0\";\n    str[1] = \"x\";\n    for (uint i = 0; i < data.length; i++) {\n        str[2+i*2] = alphabet[uint(uint8(data[i] >> 4))];\n        str[3+i*2] = alphabet[uint(uint8(data[i] & 0x0f))];\n    }\n    return string(str);\n}\n\n\n\n}",
  "sourcePath": "/home/kali/Documents/oasis-contract/contracts/Game.sol",
  "compiler": {
    "name": "solc",
    "version": "0.8.12+commit.f00d7308.Emscripten.clang"
  },
  "schemaVersion": "3.4.5",
  "updatedAt": "2022-05-11T23:05:38.070Z",
  "devdoc": {
    "kind": "dev",
    "methods": {
      "approve(address,uint256)": {
        "details": "See {IERC721-approve}."
      },
      "balanceOf(address)": {
        "details": "See {IERC721-balanceOf}."
      },
      "getApproved(uint256)": {
        "details": "See {IERC721-getApproved}."
      },
      "isApprovedForAll(address,address)": {
        "details": "See {IERC721-isApprovedForAll}."
      },
      "name()": {
        "details": "See {IERC721Metadata-name}."
      },
      "ownerOf(uint256)": {
        "details": "See {IERC721-ownerOf}."
      },
      "safeTransferFrom(address,address,uint256)": {
        "details": "See {IERC721-safeTransferFrom}."
      },
      "safeTransferFrom(address,address,uint256,bytes)": {
        "details": "See {IERC721-safeTransferFrom}."
      },
      "setApprovalForAll(address,bool)": {
        "details": "See {IERC721-setApprovalForAll}."
      },
      "supportsInterface(bytes4)": {
        "details": "See {IERC165-supportsInterface}."
      },
      "symbol()": {
        "details": "See {IERC721Metadata-symbol}."
      },
      "tokenURI(uint256)": {
        "details": "See {IERC721Metadata-tokenURI}."
      },
      "transferFrom(address,address,uint256)": {
        "details": "See {IERC721-transferFrom}."
      }
    },
    "version": 1
  },
  "userdoc": {
    "kind": "user",
    "methods": {},
    "version": 1
  }
}